{
  "address": "0x2D9A7b58Af01ab2126DC2c848Fa3227D0c5fc354",
  "abi": [
    {
      "inputs": [],
      "stateMutability": "nonpayable",
      "type": "constructor"
    },
    {
      "anonymous": false,
      "inputs": [
        {
          "indexed": true,
          "internalType": "address",
          "name": "previousOwner",
          "type": "address"
        },
        {
          "indexed": true,
          "internalType": "address",
          "name": "newOwner",
          "type": "address"
        }
      ],
      "name": "OwnershipTransferred",
      "type": "event"
    },
    {
      "anonymous": false,
      "inputs": [
        {
          "indexed": false,
          "internalType": "uint256",
          "name": "poolId",
          "type": "uint256"
        }
      ],
      "name": "PoolCancelled",
      "type": "event"
    },
    {
      "anonymous": false,
      "inputs": [
        {
          "indexed": false,
          "internalType": "uint256",
          "name": "poolId",
          "type": "uint256"
        },
        {
          "indexed": false,
          "internalType": "uint256",
          "name": "startTime",
          "type": "uint256"
        },
        {
          "indexed": false,
          "internalType": "uint256",
          "name": "endTime",
          "type": "uint256"
        },
        {
          "indexed": false,
          "internalType": "uint256",
          "name": "entryFee",
          "type": "uint256"
        }
      ],
      "name": "PoolCreated",
      "type": "event"
    },
    {
      "anonymous": false,
      "inputs": [
        {
          "indexed": false,
          "internalType": "uint256",
          "name": "poolId",
          "type": "uint256"
        },
        {
          "indexed": false,
          "internalType": "address",
          "name": "user",
          "type": "address"
        },
        {
          "indexed": false,
          "internalType": "address[5]",
          "name": "tokens",
          "type": "address[5]"
        },
        {
          "indexed": false,
          "internalType": "int256[5]",
          "name": "prices",
          "type": "int256[5]"
        }
      ],
      "name": "PoolEntered",
      "type": "event"
    },
    {
      "anonymous": false,
      "inputs": [
        {
          "indexed": false,
          "internalType": "uint256",
          "name": "poolId",
          "type": "uint256"
        },
        {
          "indexed": false,
          "internalType": "uint256",
          "name": "amount",
          "type": "uint256"
        },
        {
          "indexed": false,
          "internalType": "address",
          "name": "winner",
          "type": "address"
        }
      ],
      "name": "PoolRewardTransfer",
      "type": "event"
    },
    {
      "inputs": [],
      "name": "FEE",
      "outputs": [
        {
          "internalType": "uint16",
          "name": "",
          "type": "uint16"
        }
      ],
      "stateMutability": "view",
      "type": "function"
    },
    {
      "inputs": [],
      "name": "MAX_ENTRY_COUNT",
      "outputs": [
        {
          "internalType": "uint8",
          "name": "",
          "type": "uint8"
        }
      ],
      "stateMutability": "view",
      "type": "function"
    },
    {
      "inputs": [],
      "name": "MIN_ENTRY_COUNT",
      "outputs": [
        {
          "internalType": "uint8",
          "name": "",
          "type": "uint8"
        }
      ],
      "stateMutability": "view",
      "type": "function"
    },
    {
      "inputs": [],
      "name": "NUM_USER_SELECTION",
      "outputs": [
        {
          "internalType": "uint8",
          "name": "",
          "type": "uint8"
        }
      ],
      "stateMutability": "view",
      "type": "function"
    },
    {
      "inputs": [],
      "name": "POOL_DURATION",
      "outputs": [
        {
          "internalType": "uint256",
          "name": "",
          "type": "uint256"
        }
      ],
      "stateMutability": "view",
      "type": "function"
    },
    {
      "inputs": [],
      "name": "POOL_ENTRY_INTERVAL",
      "outputs": [
        {
          "internalType": "uint256",
          "name": "",
          "type": "uint256"
        }
      ],
      "stateMutability": "view",
      "type": "function"
    },
    {
      "inputs": [],
      "name": "POOL_START_INTERVAL",
      "outputs": [
        {
          "internalType": "uint256",
          "name": "",
          "type": "uint256"
        }
      ],
      "stateMutability": "view",
      "type": "function"
    },
    {
      "inputs": [],
      "name": "WINNER_COUNT",
      "outputs": [
        {
          "internalType": "uint8",
          "name": "",
          "type": "uint8"
        }
      ],
      "stateMutability": "view",
      "type": "function"
    },
    {
      "inputs": [
        {
          "internalType": "uint256",
          "name": "_poolId",
          "type": "uint256"
        }
      ],
      "name": "cancelPool",
      "outputs": [],
      "stateMutability": "nonpayable",
      "type": "function"
    },
    {
      "inputs": [
        {
          "internalType": "bytes",
          "name": "",
          "type": "bytes"
        }
      ],
      "name": "checkUpkeep",
      "outputs": [
        {
          "internalType": "bool",
          "name": "upkeepNeeded",
          "type": "bool"
        },
        {
          "internalType": "bytes",
          "name": "",
          "type": "bytes"
        }
      ],
      "stateMutability": "nonpayable",
      "type": "function"
    },
    {
      "inputs": [
        {
          "internalType": "uint256",
          "name": "_entryFee",
          "type": "uint256"
        },
        {
          "internalType": "address",
          "name": "_token",
          "type": "address"
        }
      ],
      "name": "createPool",
      "outputs": [],
      "stateMutability": "nonpayable",
      "type": "function"
    },
    {
      "inputs": [
        {
          "internalType": "uint256",
          "name": "_poolId",
          "type": "uint256"
        }
      ],
      "name": "distributeRewards",
      "outputs": [],
      "stateMutability": "nonpayable",
      "type": "function"
    },
    {
      "inputs": [
        {
          "internalType": "uint256",
          "name": "_poolId",
          "type": "uint256"
        },
        {
          "internalType": "address[5]",
          "name": "_tokens",
          "type": "address[5]"
        }
      ],
      "name": "enterPool",
      "outputs": [],
      "stateMutability": "nonpayable",
      "type": "function"
    },
    {
      "inputs": [
        {
          "internalType": "address",
          "name": "",
          "type": "address"
        }
      ],
      "name": "feeCollected",
      "outputs": [
        {
          "internalType": "uint256",
          "name": "",
          "type": "uint256"
        }
      ],
      "stateMutability": "view",
      "type": "function"
    },
    {
      "inputs": [
        {
          "internalType": "uint256",
          "name": "_poolId",
          "type": "uint256"
        },
        {
          "internalType": "address",
          "name": "_address",
          "type": "address"
        }
      ],
      "name": "getNetPoints",
      "outputs": [
        {
          "internalType": "int256",
          "name": "",
          "type": "int256"
        }
      ],
      "stateMutability": "view",
      "type": "function"
    },
    {
      "inputs": [
        {
          "internalType": "uint256",
          "name": "_poolId",
          "type": "uint256"
        }
      ],
      "name": "getPoolEntries",
      "outputs": [
        {
          "internalType": "address[]",
          "name": "",
          "type": "address[]"
        }
      ],
      "stateMutability": "view",
      "type": "function"
    },
    {
      "inputs": [
        {
          "internalType": "uint256",
          "name": "_poolId",
          "type": "uint256"
        },
        {
          "internalType": "address",
          "name": "_address",
          "type": "address"
        }
      ],
      "name": "getPoolPosition",
      "outputs": [
        {
          "internalType": "uint256",
          "name": "",
          "type": "uint256"
        },
        {
          "internalType": "int256",
          "name": "",
          "type": "int256"
        }
      ],
      "stateMutability": "view",
      "type": "function"
    },
    {
      "inputs": [
        {
          "internalType": "uint256",
          "name": "_poolId",
          "type": "uint256"
        },
        {
          "internalType": "address",
          "name": "_address",
          "type": "address"
        }
      ],
      "name": "getUserPoolEntries",
      "outputs": [
        {
          "components": [
            {
              "internalType": "address[5]",
              "name": "tokens",
              "type": "address[5]"
            },
            {
              "internalType": "int256[5]",
              "name": "prices",
              "type": "int256[5]"
            }
          ],
          "internalType": "struct Bet5Game.UserEntry",
          "name": "",
          "type": "tuple"
        }
      ],
      "stateMutability": "view",
      "type": "function"
    },
    {
      "inputs": [],
      "name": "keeperPoolCounter",
      "outputs": [
        {
          "internalType": "uint256",
          "name": "",
          "type": "uint256"
        }
      ],
      "stateMutability": "view",
      "type": "function"
    },
    {
      "inputs": [
        {
          "internalType": "uint256",
          "name": "_poolId",
          "type": "uint256"
        }
      ],
      "name": "leaderboard",
      "outputs": [
        {
          "internalType": "address[3]",
          "name": "",
          "type": "address[3]"
        },
        {
          "internalType": "int256[3]",
          "name": "",
          "type": "int256[3]"
        }
      ],
      "stateMutability": "view",
      "type": "function"
    },
    {
      "inputs": [],
      "name": "owner",
      "outputs": [
        {
          "internalType": "address",
          "name": "",
          "type": "address"
        }
      ],
      "stateMutability": "view",
      "type": "function"
    },
    {
      "inputs": [
        {
          "internalType": "bytes",
          "name": "",
          "type": "bytes"
        }
      ],
      "name": "performUpkeep",
      "outputs": [],
      "stateMutability": "nonpayable",
      "type": "function"
    },
    {
      "inputs": [],
      "name": "poolCounter",
      "outputs": [
        {
          "internalType": "uint256",
          "name": "",
          "type": "uint256"
        }
      ],
      "stateMutability": "view",
      "type": "function"
    },
    {
      "inputs": [
        {
          "internalType": "uint256",
          "name": "",
          "type": "uint256"
        }
      ],
      "name": "pools",
      "outputs": [
        {
          "internalType": "uint256",
          "name": "startTime",
          "type": "uint256"
        },
        {
          "internalType": "uint256",
          "name": "endTime",
          "type": "uint256"
        },
        {
          "internalType": "uint256",
          "name": "entryFee",
          "type": "uint256"
        },
        {
          "internalType": "address",
          "name": "token",
          "type": "address"
        }
      ],
      "stateMutability": "view",
      "type": "function"
    },
    {
      "inputs": [],
      "name": "renounceOwnership",
      "outputs": [],
      "stateMutability": "nonpayable",
      "type": "function"
    },
    {
      "inputs": [
        {
          "internalType": "address",
          "name": "newOwner",
          "type": "address"
        }
      ],
      "name": "transferOwnership",
      "outputs": [],
      "stateMutability": "nonpayable",
      "type": "function"
    }
  ],
  "transactionHash": "0x60174c64f770980c21b625856ac37fffd5a518e1b6756fa86ad5c7510b55f402",
  "args": [],
  "solcInputHash": "94aa1d1a1f1586254d34d08c4be0f821",
  "bytecode": "0x608060405234801561001057600080fd5b5061001a33610027565b6001808055600355610077565b600080546001600160a01b038381166001600160a01b0319831681178455604051919092169283917f8be0079c531659141344cd1fd0a4f28419497f9722a3daafe3b4186f6b6457e09190a35050565b6122a4806100866000396000f3fe608060405234801561001057600080fd5b506004361061018e5760003560e01c80639934bba5116100de578063b2c9a52111610097578063c57981b511610071578063c57981b5146103be578063cd26479a146103da578063d4299b44146103e3578063f2fde38b146103eb57600080fd5b8063b2c9a5211461038c578063be0b925114610395578063bf3683991461039d57600080fd5b80639934bba5146102d15780639e3079cb146102d9578063a829e46b146102e2578063aa61e915146102ea578063ac4afa38146102fd578063b28a56181461036457600080fd5b8063715018a61161014b5780637914d333116101255780637914d3331461028857806380e31f5a1461029b578063827c7889146102a35780638da5cb5b146102b657600080fd5b8063715018a61461023857806372ce25c21461024057806373f65a9f1461026e57600080fd5b806301206dbe1461019357806317c1fdd3146101a85780632b00e962146101d15780634585e33b146101f157806359974e38146102045780636e04ff0d14610217575b600080fd5b6101a66101a1366004611d34565b6103fe565b005b6101bb6101b6366004611cf1565b61080a565b6040516101c89190611eae565b60405180910390f35b6101e46101df366004611d09565b610879565b6040516101c89190611f6c565b6101a66101ff366004611bdb565b610924565b6101a6610212366004611cf1565b610a2d565b61022a610225366004611bdb565b610d34565b6040516101c8929190611efb565b6101a6610e24565b61026061024e366004611b9a565b60046020526000908152604090205481565b6040519081526020016101c8565b610276601481565b60405160ff90911681526020016101c8565b6101a6610296366004611d09565b610e5a565b610260607881565b6101a66102b1366004611cf1565b611057565b6000546040516001600160a01b0390911681526020016101c8565b610276600381565b61026060025481565b610276600581565b6102606102f8366004611d09565b61127b565b61033b61030b366004611cf1565b6005602052600090815260409020805460018201546002830154600390930154919290916001600160a01b031684565b604080519485526020850193909352918301526001600160a01b031660608201526080016101c8565b610377610372366004611d09565b61144e565b604080519283526020830191909152016101c8565b61026061012c81565b610276600681565b6103b06103ab366004611cf1565b611635565b6040516101c8929190611e49565b6103c76101f481565b60405161ffff90911681526020016101c8565b61026060035481565b61026060b481565b6101a66103f9366004611b9a565b6119ab565b600260015414156104565760405162461bcd60e51b815260206004820152601f60248201527f5265656e7472616e637947756172643a207265656e7472616e742063616c6c0060448201526064015b60405180910390fd5b6002600155600082815260056020526040902080546104779060789061218b565b4210156104bf5760405162461bcd60e51b8152602060048201526016602482015275141bdbdb08195b9d1c9e481b9bdd081cdd185c9d195960521b604482015260640161044d565b805442106105065760405162461bcd60e51b81526020600482015260146024820152732837b7b61032b73a393c903a34b6b29037bb32b960611b604482015260640161044d565b600481015460141161054f5760405162461bcd60e51b8152602060048201526012602482015271141bdbdb081b1a5b5a5d081c995858da195960721b604482015260640161044d565b6000838152600660209081526040808320338452909152902080546001600160a01b0316159061058190846005611a96565b5060005b600560ff821610156106df576000848260ff16600581106105b657634e487b7160e01b600052603260045260246000fd5b602002015190506000816001600160a01b031663feaf968c6040518163ffffffff1660e01b815260040160a06040518083038186803b1580156105f857600080fd5b505afa15801561060c573d6000803e3d6000fd5b505050506040513d601f19601f820116820180604052508101906106309190611dc8565b505050915050600081136106865760405162461bcd60e51b815260206004820152601a60248201527f546f6b656e2070726963652066656564206e6f7420666f756e64000000000000604482015260640161044d565b60008781526006602090815260408083203384529091529020819060059081019060ff86169081106106c857634e487b7160e01b600052603260045260246000fd5b0155508190506106d78161220c565b915050610585565b5080156107a45760048281018054600181018255600091825260209091200180546001600160a01b03191633908117909155600384015460028501546040516323b872dd60e01b81529384019290925230602484015260448301919091526001600160a01b0316906323b872dd90606401602060405180830381600087803b15801561076a57600080fd5b505af115801561077e573d6000803e3d6000fd5b505050506040513d601f19601f820116820180604052508101906107a29190611bbb565b505b60008481526006602090815260408083203380855292529182902091517f71b6c95642155fb357769c05d3b8a0e8ad1fe8a1d3b31ac28dcfac52da1db024926107f892889290918891600590910190611fb4565b60405180910390a15050600180555050565b60008181526005602090815260409182902060040180548351818402810184019094528084526060939283018282801561086d57602002820191906000526020600020905b81546001600160a01b0316815260019091019060200180831161084f575b50505050509050919050565b610881611aee565b60008381526006602090815260408083206001600160a01b038616845290915290819020815160e08101835291829081018260058282826020028201915b81546001600160a01b031681526001909101906020018083116108bf5750505091835250506040805160a08101918290526020909201919060058481019182845b81548152602001906001019080831161090057505050505081525050905092915050565b600380546000908152600560209081526040808320815160a08101835281548152600182015481850152600282015481840152948101546001600160a01b031660608601526004810180548351818602810186019094528084529495949193608086019392908301828280156109c357602002820191906000526020600020905b81546001600160a01b031681526001909101906020018083116109a5575b5050505050815250509050806000015142101580156109e757506080810151516006115b15610a11576109f7600354611057565b60038054906000610a07836121f1565b9190505550505050565b8060200151421115610a28576109f7600354610a2d565b505050565b60026001541415610a805760405162461bcd60e51b815260206004820152601f60248201527f5265656e7472616e637947756172643a207265656e7472616e742063616c6c00604482015260640161044d565b600260018181556000838152600560209081526040808320815160a081018352815481529481015485840152948501548482015260038501546001600160a01b031660608501526004850180548251818502810185019093528083529395936080860193830182828015610b1d57602002820191906000526020600020905b81546001600160a01b03168152600190910190602001808311610aff575b505050505081525050905080602001514211610b6e5760405162461bcd60e51b815260206004820152601060248201526f506f6f6c20696e2070726f677265737360801b604482015260640161044d565b6000610b7b600354611635565b509050600061271061ffff166101f461ffff168460400151856080015151610ba3919061212d565b610bad919061212d565b610bb79190612096565b90506000818460400151856080015151610bd1919061212d565b610bdb919061218b565b905060005b600360ff82161015610d28576000848260ff1660038110610c1157634e487b7160e01b600052603260045260246000fd5b6020020151905060006006610c278460036121a2565b610c349060ff168661212d565b610c3e9190612096565b606088015160405163a9059cbb60e01b81526001600160a01b0385811660048301526024820184905292935091169063a9059cbb90604401602060405180830381600087803b158015610c9057600080fd5b505af1158015610ca4573d6000803e3d6000fd5b505050506040513d601f19601f82011682018060405250810190610cc89190611bbb565b5060035460408051918252602082018390526001600160a01b03841682820152517fe1c0e377d303a930126a7da6865a6682da1498141bdd4bb07538411c5f7d6dad9181900360600190a150508080610d209061220c565b915050610be0565b50506001805550505050565b600380546000908152600560209081526040808320815160a08101835281548152600182015481850152600282015481840152948101546001600160a01b03166060868101919091526004820180548451818702810187019095528085529596919587959294608086019390929190830182828015610ddc57602002820191906000526020600020905b81546001600160a01b03168152600190910190602001808311610dbe575b505050505081525050905060025460035411158015610e1a575080514210801590610e0c57506080810151516006115b80610e1a5750806020015142115b9250509250929050565b6000546001600160a01b03163314610e4e5760405162461bcd60e51b815260040161044d90611f37565b610e586000611a46565b565b6000546001600160a01b03163314610e845760405162461bcd60e51b815260040161044d90611f37565b60008211610ec95760405162461bcd60e51b8152602060048201526012602482015271496e63726561736520656e7472792066656560701b604482015260640161044d565b6000816001600160a01b03166306fdde036040518163ffffffff1660e01b815260040160006040518083038186803b158015610f0457600080fd5b505afa158015610f18573d6000803e3d6000fd5b505050506040513d6000823e601f3d908101601f19168201604052610f409190810190611c48565b5111610f865760405162461bcd60e51b8152602060048201526015602482015274496e76616c696420746f6b656e206164647265737360581b604482015260640161044d565b6000600260008154610f97906121f1565b91829055509050610fa960b442612050565b60008281526005602052604090205561012c610fc660b442612050565b610fd09190612050565b60008281526005602090815260409182902060018101849055600281018790556003810180546001600160a01b0319166001600160a01b0388161790555482518581529182015290810191909152606081018490527f370b09ab844737f9ba8d7e02c6bb837b4ecacd3de27024c04e2fc44c1dce65b19060800160405180910390a1505050565b600081815260056020526040902080546001820154116110b25760405162461bcd60e51b8152602060048201526016602482015275141bdbdb08185b1c9958591e4818d85b98d95b1b195960521b604482015260640161044d565b805442116110f55760405162461bcd60e51b815260206004820152601060248201526f141bdbdb081b9bdd081cdd185c9d195960821b604482015260640161044d565b60048101546006116111495760405162461bcd60e51b815260206004820181905260248201527f456e74727920636f756e7420657863656564732063616e63656c206c696d6974604482015260640161044d565b8054600182015560005b600482015460ff821610156112435760038201546004830180546001600160a01b039092169163a9059cbb919060ff85169081106111a157634e487b7160e01b600052603260045260246000fd5b600091825260209091200154600285015460405160e084901b6001600160e01b03191681526001600160a01b0390921660048301526024820152604401602060405180830381600087803b1580156111f857600080fd5b505af115801561120c573d6000803e3d6000fd5b505050506040513d601f19601f820116820180604052508101906112309190611bbb565b508061123b8161220c565b915050611153565b506040518281527f3d229dd60fc64b0903758feed58453f62e715f5d01dc0978c0a3a312dd2776c29060200160405180910390a15050565b600080805b600560ff8216101561143a5760008581526006602090815260408083206001600160a01b0388168452909152812060ff8316600581106112d057634e487b7160e01b600052603260045260246000fd5b0160009054906101000a90046001600160a01b031690506000816001600160a01b031663feaf968c6040518163ffffffff1660e01b815260040160a06040518083038186803b15801561132257600080fd5b505afa158015611336573d6000803e3d6000fd5b505050506040513d601f19601f8201168201806040525081019061135a9190611dc8565b50505060008981526006602090815260408083206001600160a01b038c16845290915290209092506005908101915060ff85169081106113aa57634e487b7160e01b600052603260045260246000fd5b015460008881526006602090815260408083206001600160a01b038b16845290915290206127109060059081019060ff87169081106113f957634e487b7160e01b600052603260045260246000fd5b0154611405908461214c565b61140f91906120aa565b6114199190612068565b611423908561200f565b9350505080806114329061220c565b915050611280565b50611446600582612068565b949350505050565b600082815260056020526040812054819042116114a05760405162461bcd60e51b815260206004820152601060248201526f141bdbdb081b9bdd081cdd185c9d195960821b604482015260640161044d565b6000848152600560205260409020600101544211156114f25760405162461bcd60e51b815260206004820152600e60248201526d141bdbdb081a185cc8195b99195960921b604482015260640161044d565b60008481526005602090815260408083206004018054825181850281018501909352808352919290919083018282801561155557602002820191906000526020600020905b81546001600160a01b03168152600190910190602001808311611537575b505050505090506000611568868661127b565b825190915060019060005b845181101561162657600085828151811061159e57634e487b7160e01b600052603260045260246000fd5b60200260200101519050886001600160a01b0316816001600160a01b031614156115c6578192505b6115d08a8261127b565b8512156115e957836115e1816121f1565b945050611613565b6115f38a8261127b565b8514801561160057508183115b15611613578361160f816121f1565b9450505b508061161e816121f1565b915050611573565b50909791965090945050505050565b61163d611b13565b611645611b13565b6000838152600560209081526040808320815160a0810183528154815260018201548185015260028201548184015260038201546001600160a01b031660608201526004820180548451818702810187019095528085529194929360808601939092908301828280156116e157602002820191906000526020600020905b81546001600160a01b031681526001909101906020018083116116c3575b5050505050815250509050600660ff1681608001515110156117385760405162461bcd60e51b815260206004820152601060248201526f416464206d6f726520656e747269657360801b604482015260640161044d565b611740611b13565b611748611b13565b60005b8360800151518160ff16101561199f5760006117958886608001518460ff168151811061178857634e487b7160e01b600052603260045260246000fd5b602002602001015161127b565b83519091508113806117af575083516001600160a01b0316155b15611852576020840180516001600160a01b03908116604087015285511690526080850151805160ff84169081106117f757634e487b7160e01b600052603260045260246000fd5b60200260200101518460006003811061182057634e487b7160e01b600052603260045260246000fd5b6001600160a01b03929092166020928302919091015283018051604085015283519052808360005b602002015261198c565b602083015181138061186f575060208401516001600160a01b0316155b156118ff5760208401516001600160a01b031660408501526080850151805160ff84169081106118af57634e487b7160e01b600052603260045260246000fd5b6020026020010151846001600381106118d857634e487b7160e01b600052603260045260246000fd5b6001600160a01b039290921660209283029190910152830151604084015280836001611848565b604083015181138061191c575060408401516001600160a01b0316155b1561198c5784608001518260ff168151811061194857634e487b7160e01b600052603260045260246000fd5b60200260200101518460026003811061197157634e487b7160e01b600052603260045260246000fd5b6001600160a01b039290921660209092020152604083018190525b50806119978161220c565b91505061174b565b50909590945092505050565b6000546001600160a01b031633146119d55760405162461bcd60e51b815260040161044d90611f37565b6001600160a01b038116611a3a5760405162461bcd60e51b815260206004820152602660248201527f4f776e61626c653a206e6577206f776e657220697320746865207a65726f206160448201526564647265737360d01b606482015260840161044d565b611a4381611a46565b50565b600080546001600160a01b038381166001600160a01b0319831681178455604051919092169283917f8be0079c531659141344cd1fd0a4f28419497f9722a3daafe3b4186f6b6457e09190a35050565b8260058101928215611ade579160200282015b82811115611ade57825182546001600160a01b0319166001600160a01b03909116178255602090920191600190910190611aa9565b50611aea929150611b31565b5090565b6040518060400160405280611b01611b46565b8152602001611b0e611b46565b905290565b60405180606001604052806003906020820280368337509192915050565b5b80821115611aea5760008155600101611b32565b6040518060a001604052806005906020820280368337509192915050565b80356001600160a01b0381168114611b7b57600080fd5b919050565b805169ffffffffffffffffffff81168114611b7b57600080fd5b600060208284031215611bab578081fd5b611bb482611b64565b9392505050565b600060208284031215611bcc578081fd5b81518015158114611bb4578182fd5b60008060208385031215611bed578081fd5b823567ffffffffffffffff80821115611c04578283fd5b818501915085601f830112611c17578283fd5b813581811115611c25578384fd5b866020828501011115611c36578384fd5b60209290920196919550909350505050565b600060208284031215611c59578081fd5b815167ffffffffffffffff80821115611c70578283fd5b818401915084601f830112611c83578283fd5b815181811115611c9557611c95612258565b604051601f8201601f19908116603f01168101908382118183101715611cbd57611cbd612258565b81604052828152876020848701011115611cd5578586fd5b611ce68360208301602088016121c5565b979650505050505050565b600060208284031215611d02578081fd5b5035919050565b60008060408385031215611d1b578182fd5b82359150611d2b60208401611b64565b90509250929050565b60008060c08385031215611d46578182fd5b82359150602084603f850112611d5a578182fd5b60405160a0810181811067ffffffffffffffff82111715611d7d57611d7d612258565b6040528085830160c08701881015611d93578485fd5b845b6005811015611db957611da782611b64565b83529184019190840190600101611d95565b50505080925050509250929050565b600080600080600060a08688031215611ddf578081fd5b611de886611b80565b9450602086015193506040860151925060608601519150611e0b60808701611b80565b90509295509295909350565b8060005b6005811015611e435781516001600160a01b0316845260209384019390910190600101611e1b565b50505050565b60c08101818460005b6003811015611e7a5781516001600160a01b0316835260209283019290910190600101611e52565b505050606082018360005b6003811015611ea4578151835260209283019290910190600101611e85565b5050509392505050565b6020808252825182820181905260009190848201906040850190845b81811015611eef5783516001600160a01b031683529284019291840191600101611eca565b50909695505050505050565b82151581526040602082015260008251806040840152611f228160608501602087016121c5565b601f01601f1916919091016060019392505050565b6020808252818101527f4f776e61626c653a2063616c6c6572206973206e6f7420746865206f776e6572604082015260600190565b600061014082019050611f80828451611e17565b60208084015160a0840160005b6005811015611faa57825182529183019190830190600101611f8d565b5050505092915050565b8481526001600160a01b038416602080830191909152610180820190611fdd6040840186611e17565b60e083018460005b600581101561200257815483529183019160019182019101611fe5565b5050505095945050505050565b600080821280156001600160ff1b03849003851316156120315761203161222c565b600160ff1b839003841281161561204a5761204a61222c565b50500190565b600082198211156120635761206361222c565b500190565b60008261207757612077612242565b600160ff1b8214600019841416156120915761209161222c565b500590565b6000826120a5576120a5612242565b500490565b60006001600160ff1b03818413828413808216868404861116156120d0576120d061222c565b600160ff1b848712828116878305891216156120ee576120ee61222c565b8587129250878205871284841616156121095761210961222c565b8785058712818416161561211f5761211f61222c565b505050929093029392505050565b60008160001904831182151516156121475761214761222c565b500290565b60008083128015600160ff1b85018412161561216a5761216a61222c565b6001600160ff1b03840183138116156121855761218561222c565b50500390565b60008282101561219d5761219d61222c565b500390565b600060ff821660ff8416808210156121bc576121bc61222c565b90039392505050565b60005b838110156121e05781810151838201526020016121c8565b83811115611e435750506000910152565b60006000198214156122055761220561222c565b5060010190565b600060ff821660ff8114156122235761222361222c565b60010192915050565b634e487b7160e01b600052601160045260246000fd5b634e487b7160e01b600052601260045260246000fd5b634e487b7160e01b600052604160045260246000fdfea26469706673582212202b703ce3f4ce7dcc5a51f6f027d98b69a5de37c96cdcb5c30b2b66311865db0264736f6c63430008040033",
  "devdoc": {
    "author": "Dhruv Takwal",
    "kind": "dev",
    "methods": {
      "cancelPool(uint256)": {
        "params": {
          "_poolId": "Unique ID of the pool to cancel"
        }
      },
      "createPool(uint256,address)": {
        "params": {
          "_entryFee": "amount of accepted tokens to be deposited by user to enter pool",
          "_token": "accepted token of the pool in terms of which the entry fee is based"
        }
      },
      "distributeRewards(uint256)": {
        "params": {
          "_poolId": "Unique ID of the pool to distribute rewards to winners"
        }
      },
      "enterPool(uint256,address[5])": {
        "params": {
          "_poolId": "Unique ID of the pool to enter",
          "_tokens": "List of token aggregator addresses"
        }
      },
      "getNetPoints(uint256,address)": {
        "params": {
          "_address": "User address of which points are to be calculated",
          "_poolId": "Unique ID of the pool"
        },
        "returns": {
          "_0": "Number of points till current time based upon their pool token selection"
        }
      },
      "getPoolEntries(uint256)": {
        "params": {
          "_poolId": "Unique ID of the pool"
        },
        "returns": {
          "_0": "List of addresses of users that entered the pool"
        }
      },
      "getPoolPosition(uint256,address)": {
        "params": {
          "_address": "User address of which position and points are to be calculated",
          "_poolId": "Unique ID of the pool"
        },
        "returns": {
          "_0": "Position and net points of the user among all the pool entries"
        }
      },
      "getUserPoolEntries(uint256,address)": {
        "params": {
          "_address": "User address of which pool entries are required",
          "_poolId": "Unique ID of the pool"
        },
        "returns": {
          "_0": "UserEntry struct which has list of tokens and their initial prices"
        }
      },
      "leaderboard(uint256)": {
        "params": {
          "_poolId": "Unique ID of the pool"
        },
        "returns": {
          "_0": "List of top `WINNER_COUNT` users and their respective points in descending order of points"
        }
      },
      "owner()": {
        "details": "Returns the address of the current owner."
      },
      "renounceOwnership()": {
        "details": "Leaves the contract without owner. It will not be possible to call `onlyOwner` functions anymore. Can only be called by the current owner. NOTE: Renouncing ownership will leave the contract without an owner, thereby removing any functionality that is only available to the owner."
      },
      "transferOwnership(address)": {
        "details": "Transfers ownership of the contract to a new account (`newOwner`). Can only be called by the current owner."
      }
    },
    "title": "A betting game for users to predict top performing crypto tokens and win pool rewards",
    "version": 1
  },
  "userdoc": {
    "kind": "user",
    "methods": {
      "cancelPool(uint256)": {
        "notice": "Disbales additional entries and returns the deposited tokens of users if number of entries is less than `MIN_ENTRY_COUNT`"
      },
      "checkUpkeep(bytes)": {
        "notice": "Keeper function to check if any pool needs to be cancelled or to distribute rewards"
      },
      "createPool(uint256,address)": {
        "notice": "Create a new pool for users to enter and select tokens"
      },
      "distributeRewards(uint256)": {
        "notice": "Distributes pool rewards to winners based on gains of token selection"
      },
      "enterPool(uint256,address[5])": {
        "notice": "Adds user to list of pool entries, collects entry fee, and stores the current token prices"
      },
      "getPoolPosition(uint256,address)": {
        "notice": "Calculates the position of a user in a pool based upon the gains of their selected tokens"
      },
      "performUpkeep(bytes)": {
        "notice": "Keeper function to automatically cancel pool or distribute pool rewards"
      }
    },
    "version": 1
  },
  "storageLayout": {
    "storage": [
      {
        "astId": 72,
        "contract": "contracts/Bet5Game.sol:Bet5Game",
        "label": "_owner",
        "offset": 0,
        "slot": "0",
        "type": "t_address"
      },
      {
        "astId": 179,
        "contract": "contracts/Bet5Game.sol:Bet5Game",
        "label": "_status",
        "offset": 0,
        "slot": "1",
        "type": "t_uint256"
      },
      {
        "astId": 944,
        "contract": "contracts/Bet5Game.sol:Bet5Game",
        "label": "poolCounter",
        "offset": 0,
        "slot": "2",
        "type": "t_uint256"
      },
      {
        "astId": 946,
        "contract": "contracts/Bet5Game.sol:Bet5Game",
        "label": "keeperPoolCounter",
        "offset": 0,
        "slot": "3",
        "type": "t_uint256"
      },
      {
        "astId": 950,
        "contract": "contracts/Bet5Game.sol:Bet5Game",
        "label": "feeCollected",
        "offset": 0,
        "slot": "4",
        "type": "t_mapping(t_address,t_uint256)"
      },
      {
        "astId": 955,
        "contract": "contracts/Bet5Game.sol:Bet5Game",
        "label": "pools",
        "offset": 0,
        "slot": "5",
        "type": "t_mapping(t_uint256,t_struct(Pool)933_storage)"
      },
      {
        "astId": 962,
        "contract": "contracts/Bet5Game.sol:Bet5Game",
        "label": "userPoolEntries",
        "offset": 0,
        "slot": "6",
        "type": "t_mapping(t_uint256,t_mapping(t_address,t_struct(UserEntry)942_storage))"
      }
    ],
    "types": {
      "t_address": {
        "encoding": "inplace",
        "label": "address",
        "numberOfBytes": "20"
      },
      "t_array(t_address)5_storage": {
        "base": "t_address",
        "encoding": "inplace",
        "label": "address[5]",
        "numberOfBytes": "160"
      },
      "t_array(t_address)dyn_storage": {
        "base": "t_address",
        "encoding": "dynamic_array",
        "label": "address[]",
        "numberOfBytes": "32"
      },
      "t_array(t_int256)5_storage": {
        "base": "t_int256",
        "encoding": "inplace",
        "label": "int256[5]",
        "numberOfBytes": "160"
      },
      "t_int256": {
        "encoding": "inplace",
        "label": "int256",
        "numberOfBytes": "32"
      },
      "t_mapping(t_address,t_struct(UserEntry)942_storage)": {
        "encoding": "mapping",
        "key": "t_address",
        "label": "mapping(address => struct Bet5Game.UserEntry)",
        "numberOfBytes": "32",
        "value": "t_struct(UserEntry)942_storage"
      },
      "t_mapping(t_address,t_uint256)": {
        "encoding": "mapping",
        "key": "t_address",
        "label": "mapping(address => uint256)",
        "numberOfBytes": "32",
        "value": "t_uint256"
      },
      "t_mapping(t_uint256,t_mapping(t_address,t_struct(UserEntry)942_storage))": {
        "encoding": "mapping",
        "key": "t_uint256",
        "label": "mapping(uint256 => mapping(address => struct Bet5Game.UserEntry))",
        "numberOfBytes": "32",
        "value": "t_mapping(t_address,t_struct(UserEntry)942_storage)"
      },
      "t_mapping(t_uint256,t_struct(Pool)933_storage)": {
        "encoding": "mapping",
        "key": "t_uint256",
        "label": "mapping(uint256 => struct Bet5Game.Pool)",
        "numberOfBytes": "32",
        "value": "t_struct(Pool)933_storage"
      },
      "t_struct(Pool)933_storage": {
        "encoding": "inplace",
        "label": "struct Bet5Game.Pool",
        "members": [
          {
            "astId": 923,
            "contract": "contracts/Bet5Game.sol:Bet5Game",
            "label": "startTime",
            "offset": 0,
            "slot": "0",
            "type": "t_uint256"
          },
          {
            "astId": 925,
            "contract": "contracts/Bet5Game.sol:Bet5Game",
            "label": "endTime",
            "offset": 0,
            "slot": "1",
            "type": "t_uint256"
          },
          {
            "astId": 927,
            "contract": "contracts/Bet5Game.sol:Bet5Game",
            "label": "entryFee",
            "offset": 0,
            "slot": "2",
            "type": "t_uint256"
          },
          {
            "astId": 929,
            "contract": "contracts/Bet5Game.sol:Bet5Game",
            "label": "token",
            "offset": 0,
            "slot": "3",
            "type": "t_address"
          },
          {
            "astId": 932,
            "contract": "contracts/Bet5Game.sol:Bet5Game",
            "label": "entries",
            "offset": 0,
            "slot": "4",
            "type": "t_array(t_address)dyn_storage"
          }
        ],
        "numberOfBytes": "160"
      },
      "t_struct(UserEntry)942_storage": {
        "encoding": "inplace",
        "label": "struct Bet5Game.UserEntry",
        "members": [
          {
            "astId": 937,
            "contract": "contracts/Bet5Game.sol:Bet5Game",
            "label": "tokens",
            "offset": 0,
            "slot": "0",
            "type": "t_array(t_address)5_storage"
          },
          {
            "astId": 941,
            "contract": "contracts/Bet5Game.sol:Bet5Game",
            "label": "prices",
            "offset": 0,
            "slot": "5",
            "type": "t_array(t_int256)5_storage"
          }
        ],
        "numberOfBytes": "320"
      },
      "t_uint256": {
        "encoding": "inplace",
        "label": "uint256",
        "numberOfBytes": "32"
      }
    }
  }
}